:100000000C9441010C9469010C9469010C946901F0
:100010000C9469010C9469010C9469010C946901B8
:100020000C9469010C9469010C9469010C946901A8
:100030000C9469010C9469010C9469010C94690198
:100040000C94050C0C9469010C94320A0C94750AFA
:100050000C9469010C9469010C9469010C94690178
:100060000C9469010C946901535441545553090986
:10007000203D203078253032782052585F44523D60
:1000800025782054585F44533D2578204D41585FD2
:1000900052543D25782052585F505F4E4F3D257891
:1000A0002054585F46554C4C3D25780D0A004F4270
:1000B00053455256455F54583D253032783A2050CA
:1000C0004F4C535F434E543D2578204152435F438C
:1000D0004E543D25780D0A002553092563203D0027
:1000E00020307825303278000D0A00255309256329
:1000F000203D002030780025303278000D0A005273
:10010000585F414444525F50302D310052585F4196
:100110004444525F50322D350054585F414444529C
:100120000052585F50575F50302D3600454E5F41AA
:100130004100454E5F5258414444520052465F438D
:10014000480052465F534554555000434F4E464970
:10015000470044594E50442F46454154555245009E
:10016000CF01D501DB0144617461205261746509DE
:10017000203D2025530D0A00E301EC014D6F64651D
:100180006C0909203D2025530D0A00F601FF0106E8
:1001900002435243204C656E67746809203D202558
:1001A000530D0A000E0215021C0224025041205079
:1001B0006F77657209203D2025530D0A000A0B0C4C
:1001C0000D0E0F1112131415160001020304053150
:1001D0004D42505300324D425053003235304B4265
:1001E0005053006E524632344C3031006E5246321B
:1001F000344C30312B0044697361626C65640038A3
:100200002062697473003136206269747300504152
:100210005F4D494E0050415F4C4F570050415F4881
:100220004947480050415F4D415800000000070019
:1002300002010000030406000000000000000001AD
:10024000020408102040800102040810200102046A
:10025000081020040404040404040402020202023C
:100260000203030303030300000000250028002B02
:100270000000000000240027002A00008809310B3C
:10028000920911241FBECFEFD8E0DEBFCDBF11E031
:10029000A0E0B1E0EEE2F5E202C005900D92A43ECE
:1002A000B107D9F712E0A4EEB1E001C01D92A93B5D
:1002B000B107E1F712E0C0E8D2E004C02297FE01E6
:1002C0000E94F90ECC37D107C9F70E94F60B0C94A7
:1002D0008A120C94000061E08AE00E94580D61E0EF
:1002E0008AE00E94200D8CB580618CBD8CB5806445
:1002F0008CBD61E08DE00E94200D61E08BE00C94EC
:10030000200D811103C08CB5806202C08CB58F7D39
:100310008CBD08959CB5937F982B9CBD08952CB5FA
:10032000982F93702C7F922B9CBD9DB582FB8827C4
:1003300080F99E7F982B9DBD08958EBD0DB407FE5C
:10034000FDCF8EB508950F931F93CF93DF931F9228
:10035000CDB7DEB78C0181E069830E94810180E026
:100360000E948A0181E00E948F016981F8018181E8
:100370000F90DF91CF911F910F910C94580DFC01BC
:1003800080810C94580DCF92DF92EF92FF920F93E1
:100390001F93CF93DF9300D0CDB7DEB78C01E62E4D
:1003A000F22E60E070E049835A830E94A3018E2DF3
:1003B0008F710E949D01E82E4981C42E5A81D52E4D
:1003C000F40E06C08FEF0E949D01F60181936F012C
:1003D000FC10F8CF61E070E0C8010E94A3018E2DEF
:1003E0000F900F90DF91CF911F910F91FF90EF90A1
:1003F000DF90CF9008951F93CF93DF93EC01162FDA
:1004000060E070E00E94A301812F8F710E949D0126
:100410008FEF0E949D01182F61E070E0CE010E94D5
:10042000A301812FDF91CF911F910895CF92DF9289
:10043000EF92FF920F931F93CF93DF9300D0CDB72E
:10044000DEB78C01E62EF22E60E070E049835A831D
:100450000E94A3018E2D8F7180620E949D01E82E63
:100460004981C42E5A81D52EF40E05C0F601819122
:100470006F010E949D01FC10F9CF61E070E0C8019E
:100480000E94A3018E2D0F900F90DF91CF911F91AD
:100490000F91FF90EF90DF90CF900895EF92FF9231
:1004A0001F93CF93DF931F92CDB7DEB77C01162F3A
:1004B00060E070E049830E94A301812F8F71806208
:1004C0000E949D01182F4981842F0E949D0161E0A7
:1004D00070E0C7010E94A301812F0F90DF91CF919F
:1004E0001F91FF90EF9008958F929F92BF92CF92AD
:1004F000DF92EF92FF920F931F93CF93DF931F92A0
:10050000CDB7DEB78C01D62EB72EFC01F480E42ED9
:10051000F41608F4EF2CF8018681811102C0FE1850
:1005200001C0F12C60E070E0C80129830E94A301A2
:100530002981822F0E949D01C82E8D2C9B2CED0CB1
:1005400005C0F40181914F010E949D01E810F9CF8F
:1005500004C080E00E949D01FA94F110FACF61E09E
:1005600070E0C8010E94A3018C2D0F90DF91CF9104
:100570001F910F91FF90EF90DF90CF90BF909F90D1
:100580008F900895BF92CF92DF92EF92FF920F93D8
:100590001F93CF93DF938C01D62EB72EFC01F480EE
:1005A000E42EF41608F4EF2CF8018681811102C0C4
:1005B000FE1801C0F12C60E070E0C8010E94A301A8
:1005C00081E60E949D01C82ECD2DDB2DED0C04C0CF
:1005D0008FEF0E949D018993EC12FACF04C08FEF38
:1005E0000E949D01FA94F110FACF61E070E0C80119
:1005F0000E94A3018C2DDF91CF911F910F91FF904D
:10060000EF90DF90CF90BF9008951F93CF93DF932B
:10061000EC0160E070E00E94A30182EE0E949D0167
:10062000182F61E070E0CE010E94A301812FDF91BD
:10063000CF911F9108951F93CF93DF93EC0160E05A
:1006400070E00E94A30181EE0E949D01182F61E0DD
:1006500070E0CE010E94A301812FDF91CF911F9105
:1006600008951F93CF93DF93EC0160E070E00E9448
:10067000A3018FEF0E949D01182F61E070E0CE0171
:100680000E94A301812FDF91CF911F910895862FA2
:1006900090E0262F21701F922F9395958795877054
:1006A00099279F938F9364FB882780F91F928F93DC
:1006B00065FB882780F91F928F9366FB882780F956
:1006C0001F928F931F926F9388E690E09F938F9372
:1006D0000E94680F8DB79EB70E960FB6F8949EBF16
:1006E0000FBE8DBF0895AF92BF92DF92EF92FF923F
:1006F0000F931F93CF93DF9300D0CDB7DEB78C015C
:10070000F42EE22ECB0169837A830E94FD0E69816B
:100710007A81089710F489E001C080E01F928F93DE
:100720007F936F93E8EDF0E0FF93EF930E94680FE3
:10073000EF0C0F900F900F900F900F900F9030EEE6
:10074000A32E30E0B32E11C0DF2CD3946F2DC8013F
:100750000E94FB011F928F93BF92AF920E94680F7D
:100760000F900F900F900F90FD2CFE10EDCF88EEA4
:1007700090E09F938F930E94680F0F900F900F90BF
:100780000F90DF91CF911F910F91FF90EF90DF902D
:10079000BF90AF9008956F927F928F929F92AF9289
:1007A000BF92CF92DF92EF92FF920F931F93CF935E
:1007B000DF93CDB7DEB727970FB6F894DEBF0FBE35
:1007C000CDBF4C01142F722ECB016E837F830E940C
:1007D000FD0E6E817F81089710F489E001C080E0F2
:1007E0001F928F937F936F93EBEEF0E0FF93EF9365
:1007F0000E94680F710E0F900F900F900F900F9046
:100800000F90EE24E394F12CEC0EFD1E53EFC52E59
:1008100050E0D52E67EFA62E60E0B62E23C0612EE5
:10082000639425E0A701612FC4010E94C301DF92F8
:10083000CF920E94680F8E010A5F1F4F0F900F909A
:100840000DC0F80182918F011F928F93BF92AF92DA
:100850000E94680F0F900F900F900F900E151F05BC
:1008600081F7162D1711DBCF8CEF90E09F938F93BC
:100870000E94680F0F900F9027960FB6F894DEBF76
:100880000FBECDBFDF91CF911F910F91FF90EF90E1
:10089000DF90CF90BF90AF909F908F907F906F90A0
:1008A0000895FC016083418381E08283138280E2AA
:1008B000848315821682108611861286138614860A
:1008C0001586168617860895462F603808F04FE77C
:1008D00065E00C944E02CF93DF93EC0160E00E9440
:1008E000FB01482F436060E0CE010E944E0240E7CA
:1008F00067E0CE010E944E02288539854A855B85D6
:100900006C857D858E859F85A0E00E94EB0E41F071
:10091000AE01485F5F4F25E06AE0CE010E941602FB
:10092000CE010E940503CE010E941B0361E070E02E
:10093000CE010E94BF0182E890E0DF91CF910C943C
:10094000B10CCF93DF93EC0160E070E00E94BF0137
:10095000CE010E941B03CE01DF91CF910C940503C1
:10096000CF92DF92FF920F931F93CF93DF931F924B
:10097000CDB7DEB76C018B01F42E60E029830E94B5
:10098000FB01482F4C7F426060E0C6010E944E028E
:1009900086E990E00E94B10C2981222311F020EB1E
:1009A00001C020EA4F2DB801C6010E94740261E027
:1009B00070E0C6010E94BF018AE090E00E94B10C85
:1009C00060E070E0C6010F90DF91CF911F910F9111
:1009D000FF90DF90CF900C94BF011F93CF93DF93D4
:1009E000EC0160E070E00E94A30180E60E949D019E
:1009F0008FEF0E949D01182F61E070E0CE010E94F0
:100A0000A301812FDF91CF911F910895EF92FF9263
:100A10000F931F93CF93DF93EC018B010E9431035F
:100A2000F82E86FBEE24E0F886FF17C001151105AD
:100A300041F0282F30E03595279527703327F801AE
:100A4000208340E467E0CE010E944E02F5FE05C01F
:100A500040E267E0CE010E944E028E2DDF91CF91E1
:100A60001F910F91FF90EF90089560E070E00C945B
:100A70000605CF93DF93EC010E94C20267E1CE012D
:100A80000E94FB018170DF91CF910895EF92FF9258
:100A90000F931F93CF93DF93EB018A01790140E716
:100AA00067E00E944E0285FB992790F9988384FBAA
:100AB000992790F9F801908386FB882780F9F70140
:100AC0008083DF91CF911F910F91FF90EF90089558
:100AD000EF92FF920F931F93CF93DF93CDB7DEB7C3
:100AE00028970FB6F894DEBF0FBECDBF7C010983F7
:100AF0001A832B833C834D835E836F83788725E045
:100B0000AE014F5F5F4F6AE00E94160225E0AE0122
:100B10004F5F5F4F60E1C7010E941602F7014481F9
:100B2000413208F040E261E1C7010E944E0228967E
:100B30000FB6F894DEBF0FBECDBFDF91CF911F91EE
:100B40000F91FF90EF900895BF92CF92DF92EF92B6
:100B5000FF920F931F93CF93DF93CDB7DEB7289704
:100B60000FB6F894DEBF0FBECDBF6C01B62EE98282
:100B7000FA820B831C832D833E834F835887611138
:100B80000AC0F601E086F18602871387248735873D
:100B90004687578707C0F6E0F61708F434C081E0AF
:100BA000681307C0EB2DF0E0E354FE4F649125E09D
:100BB00006C0E62FF0E0E354FE4F649121E0AE0161
:100BC0004F5F5F4FC6010E9416020B2D10E0F80127
:100BD000ED53FE4F6491F6014481C6010E944E021E
:100BE00062E0C6010E94FB01F801E753FE4F049149
:100BF00041E050E001C0440F0A95EAF7482B62E05B
:100C0000C6010E944E0228960FB6F894DEBF0FBEB2
:100C1000CDBFDF91CF911F910F91FF90EF90DF90AB
:100C2000CF90BF9008950F931F93CF93DF938C01C4
:100C3000EB0166E00E94FB01482F497FC330D105DC
:100C400009F40EC0C230D10511F444600AC0C130AD
:100C5000D10511F4426005C0209719F0249709F4DA
:100C6000466066E0C801DF91CF911F910F910C940F
:100C70004E0266E00E94FB018670863049F08430A7
:100C800051F021E030E0823041F020E030E005C05A
:100C900023E030E002C022E030E0C9010895EF9285
:100CA000FF920F931F93CF93DF931F92CDB7DEB7C1
:100CB0007C018B0166E00E94FB01F7011282282F64
:100CC000277D0230110511F4206207C001301105A3
:100CD00021F481E0F70182832860422F66E0C7019A
:100CE00029830E944E0266E0C7010E94FB01298110
:100CF000821721F0F701128280E001C081E00F909D
:100D0000DF91CF911F910F91FF90EF90089566E0D2
:100D10000E94FB018872803239F021E030E0883097
:100D200029F020E030E002C022E030E0C90108955F
:100D30000F931F93CF93DF93EC018B0160E00E9430
:100D4000FB01482F437F0115110531F001301105DA
:100D500011F4486001C04C6060E0CE01DF91CF919A
:100D60001F910F910C944E02CF93DF93EC0161E041
:100D700088810E94200D61E089810E94200D0E94DF
:100D80006B0160E070E0CE010E94BF0161E070E0A5
:100D9000CE010E94A30165E070E080E090E00E9437
:100DA0008B0C4FE564E0CE010E944E0263E070E0E0
:100DB000CE010E94130662E070E0CE010E944F0651
:100DC000882311F081E08B8360E070E0CE010E9407
:100DD0004F0662E070E0CE010E94980640E06CE1B0
:100DE000CE010E944E0240E767E0CE010E944E0213
:100DF0006CE4CE010E946404CE010E940503CE0182
:100E0000DF91CF910C941B0360E00E94FB0183FFF4
:100E100005C082FF06C022E030E005C020E030E0DF
:100E200002C021E030E0C9010895CF93DF93EC01C7
:100E30000E943103682FCE010E94470322E04AE05E
:100E40006FEF70E0CE010E94CB0324E04CE06CE039
:100E500071E0CE010E94730321E040E169E171E09D
:100E6000CE010E94CB0326E041E161E271E0CE01B8
:100E70000E94730321E041E06CE271E0CE010E9428
:100E8000730321E042E062E371E0CE010E9473034C
:100E900021E045E06CE371E0CE010E94730321E0A4
:100EA00046E062E471E0CE010E94730321E040E07D
:100EB0006BE471E0CE010E94730322E04CE162E535
:100EC00071E0CE010E947303CE010E948706880F55
:100ED000991F805A9E4FFC01859194919F938F9307
:100EE00086E691E09F938F930E94680FEB81F0E07C
:100EF000EE0FFF1FE858FE4F859194919F938F93BB
:100F00008CE791E09F938F930E94680FCE010E941F
:100F10000407880F991F85579E4FFC018591949176
:100F20009F938F9381E991E09F938F930E94680F25
:100F3000CE010E943906880F991F8C559E4FFC01E7
:100F4000859194919F938F938CEA91E09F938F93D7
:100F50000E94680F8DB79EB740960FB6F8949EBF5B
:100F60000FBE8DBFDF91CF9108954F7020E1629F3A
:100F7000B0011124462B64E00C944E0264E00C9402
:100F8000FB010E94BE07282F22952F7030E02F5FB3
:100F90003F4F9AEF929FA001939F500D11248F70A5
:100FA000849F9001859F300D1124C90108958F926F
:100FB0009F92AF92BF92CF92DF92EF92FF920F93E8
:100FC0001F93CF93DF9300D01F92CDB7DEB78C0174
:100FD0000E94B0040E94610C4B015C01C8010E9498
:100FE000C1076C01E12CF12C21E0AE014D5F5F4F98
:100FF00068E0C8010E94C301807391F40E94610CF3
:10100000681979098A099B096C157D058E059F056C
:1010100058F306C0C8010E94ED04F801878311C08F
:1010200098012B5F3F4FAE014F5F5F4FBE016E5F78
:101030007F4FC8010E944605FA80F8018581811121
:10104000E9CF8F2D0F900F900F90DF91CF911F91CF
:101050000F91FF90EF90DF90CF90BF90AF909F9057
:101060008F9008952BE131E0FC01318320830895B6
:101070002BE131E0FC01318320830C94030CFC0153
:101080008BE191E09183808381E08283838314826A
:101090001582168217820895CF93DF9300D0CDB7C3
:1010A000DEB7FC0183811F928F9382811F928F9301
:1010B00028E031E03F932F937F936F9369837A8386
:1010C0000E948D0F0FB6F894DEBF0FBECDBF6981B1
:1010D000862F7A81972F0F900F90DF91CF910895EF
:1010E000CF93C82FE091FC01F091FD010190F081B8
:1010F000E02D682F8CEF91E009952C2F332727FDE9
:1011000030958C2F932FCF91089560E070E080E7A9
:1011100098E00C94060FEF92FF920F931F9340E814
:1011200055E260E070E08CEF91E00E94B00A0E940E
:10113000850861E0809100010E94200D8091E70107
:101140001F928F938FE191E09F938F930E94510F95
:101150008CE291E09F938F930E94510F64E671E0BF
:101160008CEF91E00E94E20B8CEE91E00E94B406BD
:101170004FE06FE08CEE91E00E94B50701EE10EFBA
:1011800020EF30EF40EF50E060E070E08CEE91E057
:101190000E94680582EDE82E90EFF92E00EF20EF17
:1011A00030E040E050E061E08CEE91E00E94A40568
:1011B0008CEE91E00E946B040F900F900F900F90B7
:1011C0000F900F908CEE91E01F910F91FF90EF9098
:1011D0000C941507CF92DF92EF92FF921F93CF935B
:1011E000DF93CDB7DEB72B970FB6F894DEBF0FBEF7
:1011F000CDBF61E0809100010E94580D8CEE91E01E
:101200000E94A104BE016F5F7F4F84EE91E00E94B7
:101210004C089F938F9387E791E09F938F930E9451
:10122000510F20E048E064EE71E08CEE91E00E9406
:10123000D7070F900F900F900F90882319F083E934
:1012400091E002C089E991E09F938F930E94510F32
:101250000F900F908CEE91E00E946B040E944F0C57
:101260006B017C0110E08CEE91E00E94350581114C
:1012700003C0111103C030C0112349F083EA91E08B
:101280009F938F930E94510F0F900F9019C041E0D0
:10129000BE01655F7F4F8CEE91E00E9439052B8582
:1012A000822F992787FD90959F932F9381EC91E052
:1012B0009F938F930E94510F0F900F900F900F905C
:1012C00060E0809100010E94580D68EE73E080E0BC
:1012D00090E00E948B0C0EC00E944F0C6C197D098F
:1012E0008E099F0911E0693C71058105910508F09F
:1012F000BACFB8CF2B960FB6F894DEBF0FBECDBFD6
:10130000DF91CF911F91FF90EF90DF90CF900895E4
:1013100047E068E08CEE91E00E94510484EE91E099
:101320000C943F0884EE91E00C943208FC01848513
:101330009585FC01E05CFF4F20813181FC01EE5B73
:10134000FF4F80819181281B390B2F733327C901EF
:101350000895FC0184859585FC01E05CFF4F408188
:101360005181FC01EE5BFF4F208131814217530711
:1013700041F00190F081E02DE80FF91F208130E06D
:1013800002C02FEF3FEFC9010895FC0184859585C8
:10139000FC01E05CFF4F40815181FC01EE5BFF4F9F
:1013A000208131814217530781F0A081B181A80FBC
:1013B000B91F8C91208131812F5F3F4F2F733327CD
:1013C00031832083282F30E002C02FEF3FEFC90187
:1013D0000895FC0181A1882329F0A489B5898C9105
:1013E00086FFFBCF11A20895CF93DF93FC012685E2
:1013F0003785D901A05CBF4F8D919C9111970196C3
:101400008F739927E901CE5BDF4F4881598184179B
:101410009507D9F30D90BC91A02DA20FB31F6C932B
:10142000A685B785A05CBF4F11969C938E93A68925
:10143000B7892C9181E090E0078C02C0880F991F3A
:101440000A94E2F7282B2C9381E081A30488F58984
:10145000E02D80818064808381E090E0DF91CF91F6
:10146000089508951F920F920FB60F9211242F9393
:101470003F934F938F939F93EF93FF938091C0007F
:1014800082FD1CC04091C6008091A2029091A302EF
:1014900001968F7399272091A4023091A50282179B
:1014A000930771F0E091A202F091A302EE59FD4F73
:1014B00040839093A3028093A20202C08091C60051
:1014C000FF91EF919F918F914F913F912F910F90AD
:1014D0000FBE0F901F9018958CEF91E00E94960917
:1014E000892B11F00C94310A08951F920F920FB6B8
:1014F0000F9211242F933F938F939F93EF93FF931A
:1015000020915E0230915F028091600290916102B1
:101510002817390731F48091C1008F7D8093C10075
:1015200014C0E0916002F0916102E25EFD4F208103
:10153000809160029091610201968F739927909338
:101540006102809360022093C600FF91EF919F910A
:101550008F913F912F910F900FBE0F901F90189574
:10156000CF92DF92EF92FF92CF93DF93EC016A016B
:101570007B01411581EE580761057105F9F0EC8991
:10158000FD8981E090E008A002C0880F991F0A94AD
:10159000E2F7808360E079E08DE390E0A7019601B7
:1015A0000E94C90E215031094109510956954795AC
:1015B00037952795211580E1380798F0EC89FD894A
:1015C000108260E874E88EE190E0A70196010E9425
:1015D000C90E215031094109510956954795379552
:1015E0002795E889F9893083EA89FB89208319A244
:1015F000EE89FF89408181E090E09C010C8C02C063
:10160000220F331F0A94E2F7422B4083EE89FF89B1
:1016100040819C010D8C02C0220F331F0A94E2F717
:10162000422B4083EE89FF8940819C010E8C02C0D1
:10163000220F331F0A94E2F7422B4083EE89FF8981
:1016400020810F8C02C0880F991F0A94E2F78095C1
:1016500082238083DF91CF91FF90EF90DF90CF9036
:1016600008951092FF011092FE0188EE93E0A0E031
:10167000B0E08093000290930102A0930202B09325
:10168000030288ED91E09093FD018093FC0182E6D6
:1016900092E090930902809308028EE192E0909389
:1016A0000B0280930A0285EC90E090930D028093E8
:1016B0000C0284EC90E090930F0280930E0280EC79
:1016C00090E0909311028093100281EC90E090934F
:1016D00013028093120282EC90E0909315028093A3
:1016E000140286EC90E0909317028093160284E037
:1016F0008093180283E08093190287E080931A0296
:1017000085E080931B0281E080931C020895CF92B4
:10171000DF92EF92FF920F931F93CF93DF936C01B1
:10172000EB017A01E60EF71E00E010E00BC06991B4
:10173000D601ED91FC910190F081E02DC601099553
:10174000080F191FCE15DF0591F7C801DF91CF9162
:101750001F910F91FF90EF90DF90CF90089561154A
:10176000710581F0DB010D900020E9F7AD014150DA
:101770005109461B570BDC01ED91FC910280F3816E
:10178000E02D099480E090E00895DC01ED91FC915A
:101790000190F081E02D09940F931F93CF93DF9375
:1017A000EC016DE00E94C50B8C016AE0CE010E9445
:1017B000C50B9C01200F311FC901DF91CF911F91F3
:1017C0000F9108950F931F93CF93DF93EC010E9425
:1017D000AF0B8C01CE010E94CC0B9801280F391F52
:1017E000C901DF91CF911F910F9108950E94BB0C09
:1017F0000E948B08CCE6DAE00E94EA082097E1F329
:101800000E946C0AF9CF0C942A0E1F920F920FB609
:101810000F9211242F933F938F939F93AF93BF9376
:101820008091A6029091A702A091A802B091A9026E
:101830003091AE02232F2D5F2D3720F40196A11D8C
:10184000B11D05C0232F2A570296A11DB11D20935B
:10185000AE028093A6029093A702A093A802B09331
:10186000A9028091AA029091AB02A091AC02B09122
:10187000AD020196A11DB11D8093AA029093AB0207
:10188000A093AC02B093AD02BF91AF919F918F91A5
:101890003F912F910F900FBE0F901F9018950F93AF
:1018A0001F938FB7F8940091A6021091A702209180
:1018B000A8023091A9028FBFB801C9011F910F91F1
:1018C00008950F931F939FB7F8940091AA02109167
:1018D000AB022091AC023091AD0286B5A89B06C048
:1018E0008F3F21F00F5F1F4F2F4F3F4F9FBF322F72
:1018F000212F102F0027080F111D211D311D42E03F
:10190000000F111F221F331F4A95D1F7B801C901DB
:101910001F910F910895CF92DF92EF92FF92CF9394
:10192000DF936B017C010E94610CEB010EC00E94F1
:10193000610C6C1B7D0B683E734038F081E0C81A67
:10194000D108E108F108C851DC4FC114D104E10409
:10195000F10469F7DF91CF91FF90EF90DF90CF9086
:101960000895019739F0880F991F880F991F0297E2
:101970000197F1F70895789484B5826084BD84B5A9
:10198000816084BD85B5826085BD85B5816085BD7A
:10199000EEE6F0E0808181608083E1E8F0E0108293
:1019A000808182608083808181608083E0E8F0E0D4
:1019B000808181608083E1EBF0E0808184608083BE
:1019C000E0EBF0E0808181608083EAE7F0E08081F5
:1019D0008460808380818260808380818160808355
:1019E0008081806880831092C1000895833069F0FF
:1019F00028F48130A1F0823011F514C08630B1F0A6
:101A00008730C1F08430D9F404C0809180008F7792
:101A100003C0809180008F7D80938000089584B5FD
:101A20008F7702C084B58F7D84BD08958091B0000A
:101A30008F7703C08091B0008F7D8093B0000895B0
:101A4000CF93DF9390E0FC01E15CFD4F4491FC01FA
:101A5000ED5AFD4F8491882341F190E0880F991F42
:101A6000FC01EF58FD4F25913491D90189599D4FC3
:101A7000FC0185919491C82FD92F9FB7F8948C9130
:101A8000611106C0409584238C938881842308C00B
:101A9000623041F4242F209582238C938881842BFB
:101AA000888302C0842B8C939FBFDF91CF910895D0
:101AB0000F931F93CF93DF931F92CDB7DEB7282FDD
:101AC00030E0F901E55DFD4F8491F901E15CFD4FE6
:101AD0001491F901ED5AFD4F04910023D1F08823B0
:101AE00021F069830E94F60C6981E02FF0E0EE0F8F
:101AF000FF1FE959FD4F85919491DC019FB7F89440
:101B00008C91611103C01095812301C0812B8C93AE
:101B10009FBF0F90DF91CF911F910F9108950F9369
:101B20001F93CF93DF938230910510F482E090E011
:101B3000E091B102F091B20220E030E0C0E0D0E0EC
:101B400023C04081518148175907A8F04817590709
:101B500061F482819381209719F09B838A832EC040
:101B60009093B2028093B10229C02115310529F06A
:101B70004217530710F0A90102C0BE01DF01028124
:101B80001381EF019A01F8013097D9F6211531053B
:101B900009F1281B390B2430310590F412968D91F0
:101BA0009C9113976115710521F0FB01938382834A
:101BB00004C09093B2028093B102FD01329644C0FA
:101BC000FD01E20FF31F81939193225031092D9370
:101BD0003C933AC02091AF023091B002232B41F4E4
:101BE00020910401309105013093B0022093AF029F
:101BF00020910201309103012115310541F42DB7E7
:101C00003EB74091060150910701241B350BE0912E
:101C1000AF02F091B002E217F307A0F42E1B3F0BC6
:101C20002817390778F0AC014E5F5F4F241735074E
:101C300048F04E0F5F1F5093B0024093AF02819364
:101C4000919302C0E0E0F0E0CF01DF91CF911F91CE
:101C50000F910895EF92FF920F931F93CF93DF930D
:101C6000009709F48FC0DC01129713961C921E9204
:101C70001297E090B102F090B202E114F10489F4FD
:101C80002D913C911197280F391F8091AF029091AF
:101C9000B0028217930789F5B093B002A093AF0208
:101CA00071C0E70120E030E001C0EA01CA17DB079C
:101CB00038F44A815B819E0141155105B1F722C07C
:101CC000BC0162507109FB01D383C2830081118181
:101CD000AC01400F511F4C175D0761F448815981D9
:101CE000400F511F4E5F5F4F518340834A815B819C
:101CF000538342832115310529F4B093B202A09396
:101D0000B10240C0F901B383A283E90169917991DD
:101D1000C60FD71FAC17BD0779F4DC015E914E9159
:101D2000460F571F4E5F5F4F5183408312968D9130
:101D30009C91139793838283A0E0B0E002C0D70107
:101D40007C01F701828193810097C9F7C701029650
:101D500020813181820F931F2091AF023091B00218
:101D60002817390779F4109729F41092B2021092CB
:101D7000B10204C013961C921E921297F092B00208
:101D8000E092AF02DF91CF911F910F91FF90EF9002
:101D90000895A1E21A2EAA1BBB1BFD010DC0AA1FAC
:101DA000BB1FEE1FFF1FA217B307E407F50720F0C4
:101DB000A21BB30BE40BF50B661F771F881F991F3F
:101DC0001A9469F760957095809590959B01AC0188
:101DD000BD01CF0108950024A7FD00942A17300506
:101DE0004005500560057005800590050895EE0FCB
:101DF000FF1F0590F491E02D0994FC01059000204F
:101E0000E9F7809590958E0F9F1F08950F931F936C
:101E1000CF93DF93EC018B01009731F461157105CD
:101E200019F4E0E0F0E037C06EE070E081E090E0AF
:101E30000E948E11FC010097A1F380E883830115B5
:101E4000110571F01387028781E883838091B302C3
:101E50009091B402892B21F4F093B402E093B30281
:101E60002097C9F0D187C087838182608383809166
:101E7000B5029091B602892B71F4F093B602E0930B
:101E8000B5028091B7029091B802892B21F4F093AA
:101E9000B802E093B702CF01DF91CF911F910F916C
:101EA0000895A2E0B0E0E7E5FFE00C946312FE01C4
:101EB000379661917191FA83E983AF018091B50200
:101EC0009091B6020E94B10F2296E2E00C947F122C
:101ED000A2E0B0E0EEE6FFE00C946112FE0139965C
:101EE00061917191FA83E98305EB12E0D8018D913C
:101EF0009C91DC0113962C911397286013962C93D8
:101F0000AF010E94B10FD801ED91FC912381277F91
:101F100023832296E4E00C947D12A0E1B0E0E3E993
:101F2000FFE00C9461120F89188D86E08C831A8370
:101F300009838FEF9FE79E838D83AE01455E5F4FE0
:101F4000588B4F87698D7A8DCE0101960E94B10F13
:101F5000EF81F885E00FF11F10826096E4E00C94A9
:101F60007D12ACE0B0E0E7EBFFE00C9453127C0193
:101F70006B018A01FC0117821682838181FFC7C130
:101F800088248394912C8C0E9D1EF7019381F60179
:101F900093FD859193FF81916F01882309F4B3C16B
:101FA000853239F493FD859193FF81916F018532DC
:101FB00029F4B70190E00E94C911E7CF712C312CB0
:101FC00020E02032A8F48B3261F028F4803251F006
:101FD000833271F40BC08D3239F0803349F42160C3
:101FE00028C02260246025C0286023C0206121C051
:101FF00027FD27C0382F30533A3078F426FF06C02B
:10200000FAE07F9E300D1124732E13C08AE0389EB3
:10201000300D1124332E20620CC08E3221F426FDA7
:1020200072C1206406C08C3611F4206802C0883664
:1020300041F4F60193FD859193FF81916F01811128
:10204000C0CF982F9554933018F09052933028F4C5
:102050000C5F1F4FFFE3F9830DC0833631F08337E8
:1020600071F0833509F05EC023C0F8018081898357
:102070000E5F1F4F66246394712C540115C0280114
:10208000F2E04F0E511CF801A080B18026FF03C082
:10209000672D70E002C06FEF7FEFC5012C870E94B3
:1020A000BE113C0182012C856FE7262E222218C02A
:1020B0002801F2E04F0E511CF801A080B18026FFEC
:1020C00003C0672D70E002C06FEF7FEFC5012C8762
:1020D0000E94AC113C012C8550E8252E222A820159
:1020E00023FC1CC006C0B70180E290E00E94C91129
:1020F0003A94832D90E068167906A8F30FC0F50195
:1021000027FC859127FE81915F01B70190E00E9435
:10211000C91131103A94F1E06F1A71086114710419
:1021200071F7EEC0843611F0893641F5F80127FFCA
:1021300007C060817181828193810C5F1F4F08C04D
:1021400060817181882777FD8095982F0E5F1F4FE2
:102150004FE6642E622297FF09C090958095709596
:1021600061957F4F8F4F9F4FF0E86F2A2AE030E054
:10217000A4010E94F511A82EA81844C0853731F497
:102180003FEEB32EB2222AE030E024C099EFB92E00
:10219000B2228F36B9F020F4883509F0B4C00DC0F2
:1021A000803721F0883709F0AEC002C020E1B22AA2
:1021B000B4FE0BC084E0B82A08C024FF09C0E6E0E2
:1021C000BE2A06C028E030E005C020E130E002C0B1
:1021D00020E132E0F801B7FE07C0608171818281A1
:1021E00093810C5F1F4F06C06081718180E090E099
:1021F0000E5F1F4FA4010E94F511A82EA8188FE7AB
:10220000682E6B2066FE0BC0362D3E7FA71450F45F
:1022100064FE0AC062FC08C0362D3E7E05C0BA2CA2
:10222000362D03C0BA2C01C0B72C34FF0DC0FE01FF
:10223000EA0DF11D8081803311F4397E09C032FF2F
:1022400006C0B394B39404C0832F867809F0B39486
:1022500033FD14C030FF0FC07A2CB31460F4730C3C
:102260007B18B32C08C0B70180E290E03C870E9445
:10227000C911B3943C85B314B0F304C0B31410F483
:102280003B1801C0312C34FF12C0B70180E390E04D
:102290003C870E94C9113C8532FF1EC031FF03C03C
:1022A00088E590E002C088E790E0B7010CC0832F7A
:1022B000867891F031FD02C080E201C08BE237FDEB
:1022C0008DE2B70190E00E94C91106C0B70180E31A
:1022D00090E00E94C9117A94A714C0F3AA94F40163
:1022E000EA0DF11DB701808190E00E94C911A11093
:1022F000F5CF06C0B70180E290E00E94C9113A9480
:102300003110F8CF42CEF7012681378102C02FEF7E
:102310003FEFC9012C96E2E10C946F120F931F93CB
:10232000CF93DF93689F8001699F100D789F100DF8
:102330001124C8010E948F0DC82FD92F209731F08A
:10234000A80160E070E08C2F0E94B711CE01DF91F0
:10235000CF911F910F910895FC010590615070403D
:102360000110D8F7809590958E0F9F1F0895DC017E
:1023700001C06D9341505040E0F70895FC01615059
:10238000704001900110D8F7809590958E0F9F1F97
:1023900008950F931F93CF93DF938C01EB018B81F3
:1023A00081FD03C00FEF1FEF1AC082FF0DC02E8109
:1023B0003F818C819D812817390764F4E881F98178
:1023C0000193F983E88306C0E885F985802F099594
:1023D000892B41F78E819F8101969F838E83C8014F
:1023E000DF91CF911F910F910895FA01AA2728300C
:1023F00051F1203181F1E8946F936E7F6E5F7F4FD2
:102400008F4F9F4FAF4FB1E03ED0B4E03CD0670F4D
:10241000781F891F9A1FA11D680F791F8A1F911DA0
:10242000A11D6A0F711D811D911DA11D20D009F4F0
:1024300068943F912AE0269F11243019305D319332
:10244000DEF6CF010895462F4770405D4193B3E01B
:102450000FD0C9F7F6CF462F4F70405D4A3318F0C2
:10246000495D31FD4052419302D0A9F7EACFB4E073
:10247000A6959795879577956795BA95C9F700972B
:102480006105710508959B01AC010A2E06945795CC
:10249000479537952795BA95C9F7620F731F841F23
:1024A000951FA01D08952F923F924F925F926F92B9
:1024B0007F928F929F92AF92BF92CF92DF92EF92D4
:1024C000FF920F931F93CF93DF93CDB7DEB7CA1B55
:1024D000DB0B0FB6F894DEBF0FBECDBF09942A8880
:1024E000398848885F846E847D848C849B84AA8428
:1024F000B984C884DF80EE80FD800C811B81AA81B5
:10250000B981CE0FD11D0FB6F894DEBF0FBECDBF7F
:10251000ED01089512E0C0E8D2E004C0FE010E947F
:0E252000F90E2296C238D107C9F7F894FFCF02
:10252E000D000000B90280005B2530326425303288
:10253E00642D2D2D2D5D000000000032083808534B
:10254E00656E736F723A2025690A0D002A2A2A20B9
:10255E0050524553532027542720746F20626567CD
:10256E00696E207472616E736D697474696E672022
:10257E00746F20746865206F74686572206E6F6466
:10258E00650A0D00496E697469616C697A696E67D6
:10259E0020726164696F004E6F772073656E646997
:1025AE006E6720726F6F6D73746174652025732E64
:1025BE002E2E006F6B2E2E2E006661696C65642EBA
:1025CE000A0D004661696C65642C20726573706F2C
:1025DE006E73652074696D6564206F75742E0A0DB7
:1025EE0000476F7420726573706F6E73652025637C
:1025FE00200A0D0000000000F409870B9609C5099A
:04260E00A909E90924
:00000001FF
